:020000040000FA
:100000000C944B01189518951895189518951895F6
:100010001895189518951895189518951895189578
:100020001895189518951895189518951895189568
:100030001895189518951895189518951895189558
:100040001895189518951895189518951895189548
:100050001895189518951895189518951895189538
:100060001895189518951895022E412F742F60E059
:1000700050E040E0202F30E000E010E0400F511F42
:10008000621F731F11242224322C212C102C0024D7
:10009000040E151E261E371E00E02DC02D9A0000EE
:1000A00000000000000000002D980000000000008B
:1000B0000000000000000000000000000000000040
:1000C00015C037FEEBCF2D9A0000000000000000A5
:1000D00000000000000000000000000000002D985B
:1000E000000000000000000000000000000C111CD7
:1000F000221C331C0395083120F32D980FE811E0E2
:1001000001501040E9F700C00000089515B1107FBC
:10011000102B15B90895B80120E024C04AE050E042
:100120008B010E947301042FF1DF0BC044E650E005
:100130008B010E9473018A014AE050E00E94730122
:10014000E5DF422F01E010E00E945D01009518B14B
:10015000102318B90FE91FE001501040E9F700C063
:1001600000002395243028F508B10F6008B9022F4C
:10017000005039F00A9589F00A95C1F20A9571F29A
:10018000E0CF40E157E28B010E9473018A0148EE03
:1001900053E00E947301BADFD4CF48EE53E08B01E5
:1001A0000E9473018A0144E650E00E947301AEDFB1
:1001B000C8CF08952D98259A249A2C9A04B10F60DF
:1001C00004B905B10F6005B907B10F6007B908B1EF
:1001D0000F6008B909B10C6109B908950E948B013B
:1001E000E9DF86E097E2A0E0B0E08C0194DF0FE366
:1001F0001CE901501040E9F700C0000018C08C0154
:100200008ADF1496A43600E0B00724F020E010E066
:1002100000E02ADF4B9BF3CF8C017DDF1496A436E0
:1002200000E0B00724F020E010E000E01DDF4A9974
:100230001EC001968F3007E2900711F480E090E035
:100240008C0169DFA4E0B0E024E110E000E00CDF05
:100250004A99E2CF8C015FDF14961196A43600E034
:10026000B007B4F320E010E000E0FEDEF1CF4B99E0
:10027000D3CF8030904019F48FE097E201C001970E
:100280008C0149DFA4E0B0E020E015E004E1ECDE01
:10029000C1CF0C9492010FE30DBF01E00EBFC0E28D
:1002A000D1E00E9490010E94EE000E9459010C943E
:1002B00049010C944901000F111F4A95E2F7089576
:1002C00000241124E0E1001F111FEA9542F0001CF8
:1002D000111C04161506B8F3041A150AF4CFA00170
:1002E000009510950895FF27552312F4F1600FD063
:1002F000112312F4F09507D00E946001F0FD03D0A5
:10030000F1FD05C00895119501951040089551958E
:10031000419550400895BA93AA939A938A93089569
:0603200001E00895FFCF8B
:04000005000002965F
:00000001FF
