:020000040000FA
:100000000C94B5001895189518951895189518958D
:100010001895189518951895189518951895189578
:100020001895189518951895189518951895189568
:100030001895189518951895189518951895189558
:100040001895189518951895189518951895189548
:100050001895189518951895189518951895189538
:100060001895189518951895022E412F742F60E059
:1000700050E040E0202F30E000E010E0400F511F42
:10008000621F731F11242224322C212C102C0024D7
:10009000040E151E261E371E00E02DC02D9A0000EE
:1000A00000000000000000002D980000000000008B
:1000B0000000000000000000000000000000000040
:1000C00015C037FEEBCF2D9A0000000000000000A5
:1000D00000000000000000000000000000002D985B
:1000E000000000000000000000000000000C111CD7
:1000F000221C331C0395083120F308952D98259A6E
:1001000020E010E00CE3B0DF20E010E000E0ACDF26
:100110002D980FE811E001501040E9F700C00000F1
:100120000FEF19E628E1015010402040E1F700C030
:10013000000020E010E000E097DF20E01CE300E09A
:1001400093DF2D980FE811E001501040E9F700C04F
:1001500000000FEF19E628E1015010402040E1F7C0
:1001600000C00000CDCF0C94C7000FE30DBF01E02D
:100170000EBFC0E2D1E00E94C5000E947E000E9436
:10018000C3000C94B3000C94B30001E00895FFCFBA
:040000050000016A8C
:00000001FF
