:020000040000FA
:100000000C943E0118951895189518951895189503
:100010001895189518951895189518951895189578
:100020001895189518951895189518951895189568
:100030001895189518951895189518951895189558
:100040001895189518951895189518951895189548
:100050001895189518951895189518951895189538
:100060001895189518951895022E412F742F60E059
:1000700050E040E0202F30E000E010E0400F511F42
:10008000621F731F11242224322C212C102C0024D7
:10009000040E151E261E371E00E02DC02D9A0000EE
:1000A00000000000000000002D980000000000008B
:1000B0000000000000000000000000000000000040
:1000C00015C037FEEBCF2D9A0000000000000000A5
:1000D00000000000000000000000000000002D985B
:1000E000000000000000000000000000000C111CD7
:1000F000221C331C0395083120F3089515B1107F9D
:10010000102B15B90895302F20E027C04AE0032FA7
:100110000E944E01042FF2DF0EC008B10C6008B936
:10012000022F005019F00A9589F305C0032F4AE009
:100130000E944E01E3DF422F4E5F01E010E00E947B
:100140005D01009518B1102318B90FE31FE10150AC
:100150001040E9F700C0000023952230F0F2089526
:100160002D98259A249A2C9A04B10F6004B905B1F0
:100170000F6005B907B10F6007B908B10F6008B982
:1001800009B10C6109B908950E946001E9DFA0E09E
:10019000F0E080E090E00F2FB6DF0FE31CE90150A4
:1001A0001040E9F700C000002AC0FA9580E090E016
:1001B00020E010E004E158DF20E010E004E154DF2B
:1001C0002D980FE811E001501040E9F700C0000041
:1001D0000F2F99DF0496823300E0900784F020E02F
:1001E00010E000E041DF20E010E000E03DDF2D986E
:1001F0000FE811E001501040E9F700C000004A99F3
:1002000002C0A1E006C04B9902C0A2E002C04C9B14
:10021000F0E00FE91FE001501040E9F700C00000D6
:100220000196A130E1F48A3F00E090078CF2F336AA
:1002300011F4F0E001C0F39580E090E020E014E1DB
:1002400000E012DF20E014E100E00EDF2D980FE85F
:1002500011E001501040E9F700C00000B9CFA23012
:1002600009F0B6CF843600E090070CF4B1CFFF233D
:1002700009F09BCFF3E69ACF0C9466010FE30DBF14
:1002800001E00EBFC0E2D1E00E9464010E94C40000
:100290000E944C010C943C010C943C010024E8E0C9
:1002A000001FEA952AF0001C0416D0F3041AF8CFB8
:1002B000402D00950895000F111F4A95E2F708950B
:0E02C000AA939A938A93089501E00895FFCFC0
:040000050000027C79
:00000001FF
