:020000040000FA
:100000000C944401189518951895189518951895FD
:100010001895189518951895189518951895189578
:100020001895189518951895189518951895189568
:100030001895189518951895189518951895189558
:100040001895189518951895189518951895189548
:100050001895189518951895189518951895189538
:100060001895189518951895022E412F742F60E059
:1000700050E040E0202F30E000E010E0400F511F42
:10008000621F731F11242224322C212C102C0024D7
:10009000040E151E261E371E00E02DC02D9A0000EE
:1000A00000000000000000002D980000000000008B
:1000B0000000000000000000000000000000000040
:1000C00015C037FEEBCF2D9A0000000000000000A5
:1000D00000000000000000000000000000002D985B
:1000E000000000000000000000000000000C111CD7
:1000F000221C331C0395083120F32D980FE811E0E2
:1001000001501040E9F700C00000089515B1107FBC
:10011000102B15B90895B80120E02EC04AE050E038
:100120008B010E946C01042FF1DF14C008B10C6038
:1001300008B9022F005019F00A9581F30BC044E66C
:1001400050E08B010E946C018A014AE050E00E945D
:100150006C01DCDF422F4E5F01E010E00E9456018F
:10016000009518B1102318B90FE31FE1015010409A
:10017000E9F700C0000023952230C0F208952D98C1
:10018000259A249A2C9A04B10F6004B905B10F6026
:1001900005B907B10F6007B908B10F6008B909B117
:1001A0000C6109B908950E948401E9DF80E090E0C4
:1001B000A0E0B0E044248C01AEDF0FE31CE9015065
:1001C0001040E9F700C0000002C08C01A4DF4A998A
:1001D00005C044244394A0E0B0E00FC04B9905C093
:1001E00002E0402EA0E0B0E008C04C9906C080E0DC
:1001F00090E0A0E0B0E08C018EDF442031F301E01C
:100200004016F1F48C0187DF1196AC3000E0B007A6
:1002100029F420E010E000E027DFD9CFAE3300E082
:10022000B007A9F60196843600E0900714F080E04C
:1002300090E020E014E100E017DFA0E0B0E0C7CFDD
:1002400002E0401621F68C0166DF1196AC3000E02A
:10025000B00729F420E010E000E006DFB8CFA931B4
:1002600000E0B00709F0B3CF8030904019F483E686
:1002700090E001C0019720E010E004E1F5DEA0E08D
:10028000B0E0A5CF0C948C010FE30DBF01E00EBFD1
:10029000C0E2D1E00E948A010E94D3000E94520174
:1002A0000C9442010C944201000F111F4A95E2F791
:1002B000089500241124E0E1001F111FEA9542F087
:1002C000001C111C04161506B8F3041A150AF4CF05
:1002D000A001009510950895FF27552312F4F160B1
:1002E0000FD0112312F4F09507D00E945901F0FDB0
:1002F00003D0F1FD05C008951195019510400895B2
:1003000051954195504008954A92BA93AA939A9371
:0A0310008A93089501E00895FFCFDD
:04000005000002886D
:00000001FF
