:020000040000FA
:100000000C94BB0018951895189518951895189587
:100010001895189518951895189518951895189578
:100020001895189518951895189518951895189568
:100030001895189518951895189518951895189558
:100040001895189518951895189518951895189548
:100050001895189518951895189518951895189538
:100060001895189518951895022E412F742F60E059
:1000700050E040E0202F30E000E010E0400F511F42
:10008000621F731F11242224322C212C102C0024D7
:10009000040E151E261E371E00E02DC02D9A0000EE
:1000A00000000000000000002D980000000000008B
:1000B0000000000000000000000000000000000040
:1000C00015C037FEEBCF2D9A0000000000000000A5
:1000D00000000000000000000000000000002D985B
:1000E000000000000000000000000000000C111CD7
:1000F000221C331C0395083120F30895E0E00BB176
:100100000C610BB92D98259A0FEF11EE24E00150E8
:1001100010402040E1F700C0000009C024E114E1D4
:1001200000E0A2DF21E014E101E09EDF19C04A995E
:1001300004C001E0E0274A9BFECF0FEF11EE24E060
:10014000015010402040E1F700C00000EE2331F3E1
:1001500024E110E004E188DF20E015E004E184DF21
:100160002D980FE811E001501040E9F700C00000A1
:10017000DECF0C94CD000FE30DBF01E00EBFC0E257
:10018000D1E00E94CB000E947E000E94C9000C9426
:0C019000B9000C94B90001E00895FFCF05
:040000050000017680
:00000001FF
