:020000040000FA
:100000000C944F01189518951895189518951895F2
:100010001895189518951895189518951895189578
:100020001895189518951895189518951895189568
:100030001895189518951895189518951895189558
:100040001895189518951895189518951895189548
:100050001895189518951895189518951895189538
:10006000189518951895189507C02FE93FE021506D
:100070003040E9F700C000009801890101501040AC
:10008000232B99F70895022E412F742F60E050E042
:1000900040E0202F30E000E010E0400F511F621FD1
:1000A000731F11242224322C212C102C0024040E26
:1000B000151E261E371E00E02DC02D9A00000000E0
:1000C0000000000000002D9800000000000000006B
:1000D000000000000000000000000000000015C04B
:1000E00037FEEBCF2D9A000000000000000000005A
:1000F0000000000000000000000000002D9800003B
:1001000000000000000000000000000C111C221C78
:10011000331C0395083120F308950E948A01802E34
:10012000712E622E532E442EB52F80E090E03FC0FA
:100130006A9E800144E650E00E947201202F7A9E60
:10014000800144E650E00E947201A801142F312F73
:100150008A9E800144E650E00E947201132F93DFD3
:10016000BA9F800144E650E00E947201202F4A9E0F
:10017000800144E650E00E947201A801142F312F43
:100180005A9E800144E650E00E947201132F7BDFEB
:100190002D980FE811E001501040E9F700C0000071
:1001A0000AE010E061DFAA95AA2311F601968530D6
:1001B00000E090070CF042C0A0E03CC06A9E8001C5
:1001C00044E650E00E947201202F7A9E800144E6AE
:1001D00050E00E947201A801142F312F8A9E8001E5
:1001E00044E650E00E947201132F4DDFBA9F800158
:1001F00044E650E00E947201202F4A9E800144E6AE
:1002000050E00E947201A801142F312F5A9E8001E4
:1002100044E650E00E947201132F35DF2D980FE85D
:1002200011E001501040E9F700C000000AE010E0C2
:100230001BDFA395A33310F2A2E3B6CFE9E00C9441
:1002400094012D98259A0BB10C610BB90FEF19E6AB
:1002500028E1015010402040E1F700C0000007C035
:1002600050E040E030E020E014E100E056DF4A9B3F
:10027000F7CF4B9908C050E040E034E120E010E0B7
:1002800000E04BDFF4CF4C99F2CF50E04FE03CE37D
:1002900020E01FE00CE341DFEACF0C94A4010FE360
:1002A0000DBF01E00EBFC0E2D1E00E94A2010E949A
:1002B00021010E945D010C944D010C944D0100241C
:1002C0001124E0E1001F111FEA9542F0001C111CEF
:1002D00004161506B8F3041A150AF4CFA001009508
:1002E00010950895FF27552312F4F1600FD01123C4
:1002F00012F4F09507D00E945F01F0FD03D0F1FDEC
:1003000005C00895119501951040089551954195A6
:10031000504008958A927A926A925A924A92BA9377
:10032000AA939A938A93089588847F806E805D80D3
:100330004C80BB81AA8199818881F0E0EC0FFD1F80
:0A034000EF01089501E00895FFCFDA
:040000050000029E57
:00000001FF
