:020000040000FA
:100000000C949200189518951895189518951895B0
:100010001895189518951895189518951895189578
:100020001895189518951895189518951895189568
:100030001895189518951895189518951895189558
:100040001895189518951895189518951895189548
:100050001895189518951895189518951895189538
:10006000189518951895189515B1107F102B15B97E
:1000700008955F9A579A2D98259A249A2C9A04B13C
:100080000F6004B905B10F6005B907B10F6007B97A
:1000900008B10F6008B90895ECDF3BE720E021C00C
:1000A0004AE0032F0E94A200042FDEDF09C044E6CD
:1000B000032F0E94A200042F4AE00E94A200D4DF76
:1000C000422F01E010E00E94B100009518B110230A
:1000D00018B90FE91FE001501040E9F700C0000017
:1000E00023952430D8F608B10F6008B9022F0050CC
:1000F00039F00A9541F00A95D1F20A9589F2E0CFDC
:1001000000E0B2DFDDCF032F10E048EE53E00E94A5
:10011000C7008A0144E650E00E94C700A5DFD0CFA7
:100120000C94E1000FE30DBF01E00EBFC0E2D1E08F
:100130000E94DF000E944C000E94A0000C949000DE
:100140000C9490000024E8E0001FEA952AF0001CBF
:100150000416D0F3041AF8CF402D00950895000F2F
:10016000111F4A95E2F7089500241124E0E1001FD1
:10017000111FEA9542F0001C111C04161506B8F375
:10018000041A150AF4CFA001009510950895FF27D1
:10019000552312F4F1600FD0112312F4F09507D01B
:1001A0000E94B400F0FD03D0F1FD05C00895119543
:1001B000019510400895519541955040089501E0F2
:0401C0000895FFCFD0
:0400000500000124D2
:00000001FF
