:020000040000FA
:100000000C947500189518951895189518951895CD
:100010001895189518951895189518951895189578
:100020001895189518951895189518951895189568
:100030001895189518951895189518951895189558
:100040001895189518951895189518951895189548
:100050001895189518951895189518951895189538
:1000600018951895189518955F9A579A0CE10BB941
:1000700001C05F984A9BFDCF5F9A4B9919C000E081
:100080000530C0F75F984FEF51EE64E041505040AB
:100090006040E1F700C000005F9A4FEF51EE64E06E
:1000A000415050406040E1F700C000000395E8CFA8
:1000B0004C99E0CF00E00530E8F65F984FEF57E845
:1000C00063E1415050406040E1F700C000005F9A9A
:1000D0004FEF51EE64E0415050406040E1F700C006
:1000E00000000395E8CF0C9487000FE30DBF01E0FB
:1000F0000EBFC0E2D1E00E9485000E9434000E9441
:1001000083000C9473000C94730001E00895FFCFFA
:04000005000000EA0D
:00000001FF
