:020000040000FA
:100000000C94AF0018951895189518951895189593
:100010001895189518951895189518951895189578
:100020001895189518951895189518951895189568
:100030001895189518951895189518951895189558
:100040001895189518951895189518951895189548
:100050001895189518951895189518951895189538
:10006000189518951895189504C025E02A95F1F76C
:1000700000009801890101501040232BB1F7089529
:100080005F9A579A0895082E40E050E0F9DF0BB1CF
:100090000C610BB90FEF11EE24E00150104020402D
:1000A000E1F700C0000001C05F9A4A9927C080E0D4
:1000B0000FC05F9808EE13E0061B170BD5DF5F9AA1
:1000C0008B01D2DF655070406030704091F78395AE
:1000D000853078F5E0E0F0E00AC05F9808EE13E0C4
:1000E0000E1B1F0BC1DF5F9A8F01BEDF3596E83E06
:1000F00003E0F00790F368EE73E0E6CF4B990CC095
:10010000483C00E0500718F0485C504002C040E016
:1001100050E04B990EC0FDCF4C990BC0413203E02B
:10012000500718F448535F4F02C048EE53E04C9B11
:10013000FECF483E03E0500708F0B6CF40305040B5
:1001400011F45F98B2CF5F9808EE13E0041B150B13
:100150008BDF5F9A8A0188DFA8CF0C94C1000FE380
:100160000DBF01E00EBFC0E2D1E00E94BF000E94BF
:1001700043000E94BD000C94AD000C94AD0001E062
:040180000895FFCF10
:040000050000015E98
:00000001FF
